:0400000070EF05F0A8
:100800000050726573732061204B65790000F00E13
:10081000936EF00E8A6E00D08150F00B216EF00EB8
:100820002118D8A4F9D78150F00B216EF00E2118B1
:10083000D8A4F2D7000E126E320E116E19EC05F02C
:10084000F00E8A6E00D08150F00B216EF00E211850
:10085000D8B4F9D78150F00B216EF00E2118D8B41E
:10086000F2D7000E126E140E116E19EC05F08150C5
:10087000F00B216E00D0FE0E8A6E8150F00B216EBF
:1008800021C023F0F00E2118D8B40CD0000E226E37
:1008900003D08150F00B236EF00E2318D8B449D04A
:1008A000F8D747D0FD0E8A6E8150F00B216E21C023
:1008B00023F0F00E2118D8B40CD0010E226E03D014
:1008C0008150F00B236EF00E2318D8B432D0F8D735
:1008D00030D0FB0E8A6E8150F00B216E21C023F0C8
:1008E000F00E2118D8B40CD0020E226E03D0815025
:1008F000F00B236EF00E2318D8B41BD0F8D719D004
:10090000F70E8A6E8150F00B216E21C023F0F00E9D
:100910002118D8B4B0D7030E226E03D08150F00B4B
:10092000236EF00E2318D8B404D0F8D702D0A3D782
:1009300000D0E00E2118D8A405D02250040D0AD012
:100940002BD0F7D7D00E2118D8A40DD02250040DEB
:10095000010E10D0010EF324D96E000EF420DA6ED1
:10096000DF501AD0E6D7B00E2118D8A409D02250F3
:10097000040D020EF326000EF422ECD70DD0D9D7C9
:100980002250040D030EF6D707D0D3D7010E126EF6
:100990002C0E116E19EC05F01200186E18C017F02D
:1009A000F00E17168C500F0B17108C6E8C808C82EB
:1009B00000F08C92000E126E010E116E19EC05F013
:1009C00018C017F0173AF00E17168C500F0B1710AF
:1009D0008C6E8C8200F08C92000E126E030E116EE3
:1009E00019EC05F01200186E18C017F0F00E17166B
:1009F0008C500F0B17108C6E8C908C8200F08C92A8
:100A0000000E126E010E116E19EC05F018C017F0F1
:100A1000173AF00E17168C500F0B17108C6E8C8235
:100A200000F08C92000E126E030E116E19EC05F0A0
:100A30001200000E146E000E136E13D0000E166E10
:100A4000000E156E16500AE1A50E155CD8B006D042
:100A500001D004D0154A162AF5D700D0134A142A1B
:100A600000D01150135C12501458D8A0E7D71200D0
:100A70001E6E000E1F6E020E1E6008D01B500F0B64
:100A800080091F6E1F50F3EC04F008D01B500F0BB1
:100A9000C0091F6E1F50F3EC04F000D01CC019F009
:100AA0001DC01AF0A2EC05F01200720ED36EF19E7A
:100AB0008AEC05F0000E1B6E010E1C6E080E1D6EFA
:100AC000000E38EC05F0C00EF3EC04F000D007EC9B
:100AD00004F0206E2050CDEC04F0F9D700EF00F0C8
:100AE000236A226A216A700EF66E0B0EF76E000EF4
:100AF000F86E00EE01F010EE10F00900F5CFEEFFF9
:100B0000E550E150FAE1000EF86E080EF76E0001B4
:100B100055EF05F0000E956E000E126E0F0E116E61
:100B200019EC05F0020EF3EC04F0280EF3EC04F0DF
:100B3000010EF3EC04F00C0EF3EC04F0060EF3ECF3
:100B400004F012000BD019C0F6FF1AC0F7FF08001E
:100B5000F550CDEC04F0194A1A2A00D019C0F6FF5E
:100B60001AC0F7FF0800F5500009D8A4ECD712000E
:100B70003738392F3435362A3132332D20303D2B5A
:020000040020DA
:08000000FFFFFFFFFFFFFFFF00
:020000040030CA
:0E00000000091F1EFF0181FF0FC00FE00F401F
:00000001FF
